:100000000C942A000C9447000C9447000C94470071
:100010000C9447000C9447000C9447000C94470044
:100020000C9447000C9447000C9447000C94470034
:100030000C9447000C9447000C9447000C94470024
:100040000C9447000C9447000C9447000C94470014
:100050000C94470011241FBECFE5D8E0DEBFCDBF12
:1000600010E0A0E6B0E0E4E6FBE402C005900D92EB
:10007000AC37B107D9F710E0ACE7B0E001C01D9292
:10008000AC3CB107E1F70E949E240C94B0250C947F
:100090000000EF92FF920F931F937B018C0120E0F1
:1000A00030E040E05FE40E94F50388238CF0C80153
:1000B000B70120E030E040E05FE40E94C1010E940F
:1000C00055049B01AC01205030404040504806C0D0
:1000D000C801B7010E9455049B01AC01B901CA01D6
:1000E0001F910F91FF90EF900895A0E0B0E0EBE733
:1000F000F0E00C947925DC012B01FA019C919230FF
:1001000008F439C1EB018881823008F433C194309E
:1001100069F4843009F02FC111969C91119789815F
:10012000981709F428C1A0E6B0E025C1843009F48D
:1001300021C18230A9F4923009F01DC19A01AD01AC
:1001400088E0EA010990AE01E90109929E0181501F
:10015000C1F7E201898111969C918923818308C1AD
:10016000923009F407C112962D903C901397EB0141
:100170008A819B811496AD90BD90CD90DC901797AD
:10018000EC80FD800E811F819101281B390BB90184
:1001900037FF04C066277727621B730B6032710537
:1001A0000CF061C0121613066CF537014801062EDB
:1001B00004C096948794779467940A94D2F721E0C8
:1001C00030E040E050E004C0220F331F441F551FB1
:1001D0006A95D2F721503040404050402E213F21B7
:1001E00040235123211531054105510521F021E01E
:1001F00030E040E050E079018A01E628F72808293C
:1002000019293CC0232BD1F1260E371E350146019A
:10021000062E04C096948794779467940A94D2F734
:1002200021E030E040E050E004C0220F331F441FC3
:10023000551F6A95D2F721503040404050402A2146
:100240003B214C215D21211531054105510521F04E
:1002500021E030E040E050E059016A01A628B728CB
:10026000C828D9280BC0821593052CF01C01AA249C
:10027000BB24650103C0EE24FF24870111969C91E5
:10028000D20111968C91981709F445C0992339F041
:10029000A80197012A193B094C095D0906C0A6016E
:1002A00095012E193F09400B510B57FD08C01182D3
:1002B0003382228224833583468357831DC081E0A5
:1002C00081833382228288279927DC01821B930B4A
:1002D000A40BB50B84839583A683B7830DC0220F2F
:1002E000331F441F551F24833583468357838281E0
:1002F000938101979383828324813581468157813D
:10030000DA01C9010197A109B1098F5F9F4FAF4F72
:10031000BF4328F30BC0918333822282EA0CFB1C7B
:100320000C1D1D1DE482F5820683178383E0808304
:10033000248135814681578157FF1AC0C901AA27F8
:1003400097FDA095BA2F81709070A070B0705695EF
:10035000479537952795822B932BA42BB52B848318
:100360009583A683B7838281938101969383828349
:10037000DF0101C0D201CD01CDB7DEB7E2E10C94BF
:100380009525A0E2B0E0E7ECF1E00C9485256983C7
:100390007A838B839C832D833E834F835887E9E048
:1003A000EE2EF12CEC0EFD1ECE010196B7010E943F
:1003B0007E058E010F5E1F4FCE010596B8010E948B
:1003C0007E058A8991E089278A8BC701B801AE0131
:1003D000475E5F4F0E9475000E94A904A096E6E068
:1003E0000C94A125A0E2B0E0E8EFF1E00C948525A3
:1003F00069837A838B839C832D833E834F835887C5
:10040000F9E0EF2EF12CEC0EFD1ECE010196B701A6
:100410000E947E058E010F5E1F4FCE010596B8012A
:100420000E947E05C701B801AE01475E5F4F0E9482
:1004300075000E94A904A096E6E00C94A125A0E214
:10044000B0E0E5E2F2E00C94792569837A838B834E
:100450009C832D833E834F835887CE010196BE0136
:10046000675F7F4F0E947E05CE010596BE016F5EDD
:100470007F4F0E947E059985923088F0898982306D
:10048000C8F0943019F4823051F404C0843029F457
:10049000923081F480E690E0C6C0923049F420E0CA
:1004A0009A858A89981321E02A87CE010996BBC0D4
:1004B000823049F420E09A858A89981321E02A8BBA
:1004C000CE014196B0C02D843E844F8458886D88FB
:1004D0007E888F88988CEE24FF248701AA24BB2471
:1004E000650140E050E060E070E0E0E0F0E0C10174
:1004F00081709070892BE9F0E60CF71C081D191D1E
:100500009A01AB012A0D3B1D4C1D5D1D80E090E062
:10051000A0E0B0E0E614F7040805190520F481E036
:1005200090E0A0E0B0E0BA01A901480F591F6A1F8E
:100530007B1FAA0CBB1CCC1CDD1C97FE08C081E0F5
:1005400090E0A0E0B0E0A82AB92ACA2ADB2A3196B6
:10055000E032F10549F0660C771C881C991C569412
:10056000479437942794C3CFFA85EA892B893C892D
:100570008B859C85280F391F2E5F3F4F17C0CA01FE
:1005800081709070892B61F016950795F794E79428
:1005900080E090E0A0E0B0E8E82AF92A0A2B1B2BC3
:1005A00076956795579547952F5F3F4F77FDE7CF36
:1005B0000CC0440F551F661F771F17FD4160EE0CDE
:1005C000FF1C001F111F21503040403090E05907A0
:1005D00090E0690790E4790760F32B8F3C8FDB0193
:1005E000CA018F779070A070B07080349105A1051A
:1005F000B10561F447FD0AC0E114F10401051105DC
:1006000029F0405C5F4F6F4F7F4F40781A8EFE1786
:1006100011F081E08A8F4D8F5E8F6F8F78A383E01A
:10062000898FCE0149960E94A904A096E2E10C941C
:100630009525A8E1B0E0EFE1F3E00C948125698312
:100640007A838B839C832D833E834F835887B9E0C5
:10065000EB2EF12CEC0EFD1ECE010196B7010E948F
:100660007E058E010F5E1F4FCE010596B8010E94D8
:100670007E052985223008F47EC03989323010F495
:10068000B8017CC08A859A8989278A87243011F02D
:10069000223031F4231709F06EC060E670E06EC0BE
:1006A000343039F41D861E861F86188A1C861B86E8
:1006B00004C0323021F484E08987B7015FC02B8504
:1006C0003C858B899C89281B390B3C872B87ED84C3
:1006D000FE840F851889AD88BE88CF88D88CEA142F
:1006E000FB040C051D0540F4EE0CFF1C001F111F40
:1006F000215030403C872B8720E030E040E050E044
:1007000080E090E0A0E0B0E460E070E0EA14FB0478
:100710000C051D0540F0282B392B4A2B5B2BEA18C2
:10072000FB080C091D09B695A79597958795EE0CC2
:10073000FF1C001F111F6F5F7F4F6F31710531F775
:10074000DA01C9018F779070A070B0708034910584
:10075000A105B10561F427FD0AC0E114F10401050A
:10076000110529F0205C3F4F4F4F5F4F20782D87B8
:100770003E874F87588BBE01675F7F4FCB010E943A
:10078000A9046896EAE00C949D25A8E1B0E0EBECA2
:10079000F3E00C94852569837A838B839C832D8376
:1007A0003E834F83588789E0E82EF12CEC0EFD1E26
:1007B000CE010196B7010E947E058E010F5E1F4F8C
:1007C000CE010596B8010E947E058985823040F0F1
:1007D0008989823028F0C701B8010E94F60501C05E
:1007E0008FEF6896E6E00C94A125A8E1B0E0EBEF6E
:1007F000F3E00C94852569837A838B839C832D8316
:100800003E834F83588789E0E82EF12CEC0EFD1EC5
:10081000CE010196B7010E947E058E010F5E1F4F2B
:10082000CE010596B8010E947E058985823040F090
:100830008989823028F0C701B8010E94F60501C0FD
:100840008FEF6896E6E00C94A125A8E1B0E0EBE21A
:10085000F4E00C94852569837A838B839C832D83B4
:100860003E834F83588789E0E82EF12CEC0EFD1E65
:10087000CE010196B7010E947E058E010F5E1F4FCB
:10088000CE010596B8010E947E058985823040F030
:100890008989823028F0C701B8010E94F60501C09D
:1008A00081E06896E6E00C94A125ACE0B0E0EBE5D1
:1008B000F4E00C94892569837A838B839C83CE0131
:1008C0000196BE016B5F7F4F0E947E058D81823055
:1008D00061F1823050F1843021F48E81882351F10E
:1008E0002EC02F81388537FD20C06E812F31310514
:1008F0001CF06623F9F023C08EE190E0821B930B7D
:1009000029853A854B855C8504C056954795379572
:1009100027958A95D2F76623B1F05095409530958A
:1009200021953F4F4F4F5F4F0EC020E030E040E039
:1009300050E009C02FEF3FEF4FEF5FE704C020E02A
:1009400030E040E050E8B901CA012C96E2E00C9496
:10095000A525DF92EF92FF920F931F93FC01E48095
:10096000F58006811781D1808081823048F480E053
:1009700090E0A0E1B0E0E82AF92A0A2B1B2BA5C0E1
:10098000843009F49FC0823021F4EE24FF248701D3
:1009900005C0E114F1040105110519F4E0E0F0E0EF
:1009A00096C0628173819FEF623879070CF05BC05B
:1009B00022E83FEF261B370B2A3131052CF020E0CF
:1009C00030E040E050E02AC0B801A701022E04C088
:1009D00076956795579547950A94D2F781E090E010
:1009E000A0E0B0E004C0880F991FAA1FBB1F2A9582
:1009F000D2F70197A109B1098E219F21A023B1232C
:100A00000097A105B10521F081E090E0A0E0B0E001
:100A10009A01AB01282B392B4A2B5B2BDA01C90138
:100A20008F779070A070B07080349105A105B105EA
:100A300039F427FF09C0205C3F4F4F4F5F4F04C080
:100A4000215C3F4F4F4F5F4FE0E0F0E02030A0E0EF
:100A50003A07A0E04A07A0E45A0710F0E1E0F0E00E
:100A600079018A0127C06038710564F5FB01E158FE
:100A7000FF4FD801C7018F779070A070B07080349D
:100A80009105A105B10539F4E7FE0DC080E490E0C1
:100A9000A0E0B0E004C08FE390E0A0E0B0E0E80E9A
:100AA000F91E0A1F1B1F17FF05C016950795F7941F
:100AB000E794319687E016950795F794E7948A9521
:100AC000D1F705C0EE24FF248701EFEFF0E06E2F91
:100AD000679566276795902F9F77D794DD24D794E5
:100AE0008E2F8695492F462B582F5D29B701CA01B5
:100AF0001F910F91FF90EF90DF900895FC01DB01B3
:100B0000408151812281622F6F7770E0221F22275E
:100B1000221F9381892F880F822B282F30E0991F65
:100B20009927991F11969C93119721153105A9F5C5
:100B3000411551056105710511F482E037C082E865
:100B40009FEF13969C938E9312979A01AB0167E0E7
:100B5000220F331F441F551F6A95D1F783E08C93F2
:100B60000DC0220F331F441F551F12968D919C916B
:100B70001397019713969C938E931297203080E0E1
:100B8000380780E0480780E4580758F314962D93FF
:100B90003D934D935C93179708952F3F310579F45A
:100BA000411551056105710519F484E08C93089590
:100BB00064FF03C081E08C9312C01C9210C02F57B9
:100BC000304013963C932E93129783E08C9387E0EA
:100BD000440F551F661F771F8A95D1F770641496CE
:100BE0004D935D936D937C93179708951F93DC014C
:100BF000FB019C91923008F447C08081823008F458
:100C000043C0943051F411961C91843099F5818140
:100C1000682F70E0611B71093FC0843021F0923071
:100C200031F48230B9F18181882389F12DC0119688
:100C30001C9111978230F1F081811817D9F4129626
:100C40002D913C911397828193818217930794F0A1
:100C500028173907BCF014968D919D910D90BC9189
:100C6000A02D2481358146815781281739074A07ED
:100C70005B0718F4112341F00AC082179307A407F9
:100C8000B50740F4112319F061E070E005C06FEF83
:100C90007FEF02C060E070E0CB011F910895DF9309
:100CA000CF9300D0CDB7DEB780916A0090916B00F2
:100CB0002FEF8F3F920729F481E090E09A83898398
:100CC00002C01A82198289819A810F900F90CF9168
:100CD000DF910895DF93CF9300D0CDB7DEB7209199
:100CE0006A0030916B00809168009091690028172C
:100CF000390729F481E090E09A83898302C01A823F
:100D0000198289819A810F900F90CF91DF91089578
:100D1000DF93CF93CDB7DEB780916A0090916B00DF
:100D2000880F991FFC01EC55FF4F80819181CF9175
:100D3000DF910895DF93CF9300D000D0CDB7DEB719
:100D40000E944F060097D9F480916A0090916B0041
:100D5000880F991FFC01EC55FF4F808191819A8388
:100D6000898380916A0090916B00019790936B004A
:100D700080936A0089819A819C838B8302C01C8244
:100D80001B828B819C810F900F900F900F90CF91C1
:100D9000DF910895DF93CF9300D0CDB7DEB79A836C
:100DA00089830E946A060097B1F480916A0090914D
:100DB0006B00019690936B0080936A0080916A00AB
:100DC00090916B00880F991FFC01EC55FF4F8981B2
:100DD0009A81918380830F900F90CF91DF91089536
:100DE000DF93CF9300D000D000D0CDB7DEB79E8385
:100DF0008D831C821B821A8219820AC08C81882FE3
:100E000090E0FC01E458FF4F10828C818F5F8C834F
:100E10008C81843198F31C8270C08C81282F30E043
:100E20008D819E81FC01E20FF31F80818A3209F1DE
:100E30008C81282F30E08D819E81FC01E20FF31F11
:100E400080818F32B1F08C81282F30E08D819E819E
:100E5000FC01E20FF31F80818B3259F08C81282F27
:100E600030E08D819E81FC01E20FF31F80818D3285
:100E700009F58B81882F90E02981FC01E458FF4F10
:100E800020838B818F5F8B831A8219828B81482FFD
:100E900050E08C81282F30E08D819E81FC01E20F93
:100EA000F31F8081FA01E458FF4F80838B818F5FAD
:100EB0008B8320C089819A819C01220F331FC90135
:100EC000880F991F880F991F820F931F9A83898318
:100ED0008C81282F30E08D819E81FC01E20FF31F71
:100EE0008081282F30E089819A81820F931FC097DB
:100EF0009A8389838C818F5F8C838C81282F30E04B
:100F00008D819E81FC01E20FF31F8081882309F00F
:100F100084CF89819A81009759F08B81882F90E046
:100F20002981FC01E458FF4F20838B818F5F8B83E5
:100F30008CE790E026960FB6F894DEBF0FBECDBFCB
:100F4000CF91DF910895DF93CF9300D0CDB7DEB777
:100F5000898389818B3219F089818D3219F481E07E
:100F60008A830BC089818A3219F089818A3219F407
:100F700082E08A8302C083E08A838A810F900F9087
:100F8000CF91DF9108950F931F93DF93CF9300D0FC
:100F900000D0CDB7DEB79C838B831A8219820AC03A
:100FA0008A81882F90E0FC01E057FF4F10828A81F0
:100FB0008F5F8A838A81843198F31A8273C08A8111
:100FC000282F30E08B819C81FC01E20FF31F808190
:100FD0008B3271F18A81282F30E08B819C81FC015A
:100FE000E20FF31F80818D3219F18A81282F30E0C2
:100FF0008B819C81FC01E20FF31F80818A32C1F05A
:101000008A81282F30E08B819C81FC01E20FF31F45
:1010100080818F3289F50CC08981082F10E00E94F1
:101020009A06F801E057FF4F808389818F5F89839B
:101030000E944F06009791F48A81282F30E08B811F
:101040009C81FC01E20FF31F80810E94A307182FEF
:101050000E9488060E94A3078117F0F68A81282F34
:1010600030E08B819C81FC01E20FF31F8081882F8F
:1010700090E00E94CA0613C08981482F50E08A81FF
:10108000282F30E08B819C81FC01E20FF31F8081CF
:10109000FA01E057FF4F808389818F5F89838A81BE
:1010A0008F5F8A838A81282F30E08B819C81FC01AD
:1010B000E20FF31F8081882309F081CF0CC0898162
:1010C000082F10E00E949A06F801E057FF4F808336
:1010D00089818F5F89830E944F06009781F380E9A1
:1010E00090E00F900F900F900F90CF91DF911F9194
:1010F0000F910895DF93CF93CDB7DEB729970FB641
:10110000F894DEBF0FBECDBF9F838E831D8299C032
:101110008D81282F30E08E819F81FC01E20FF31F2B
:1011200080818B3211F18D81282F30E08E819F815B
:10113000FC01E20FF31F80818D32B9F08D81282FE1
:1011400030E08E819F81FC01E20FF31F80818A32A3
:1011500061F08D81282F30E08E819F81FC01E20FAC
:10116000F31F80818F3209F05CC00E949A069C8335
:101170008B830E949A069A8389838D81282F30E081
:101180008E819F81FC01E20FF31F8081282F30E0C8
:1011900039872887488559854B325105B1F08885B4
:1011A00099858C32910534F4288539852A323105A8
:1011B000F1F044C0488559854D32510579F0888554
:1011C00099858F32910511F139C089819A812B81DE
:1011D0003C81820F931F0E94CA0630C089819A8188
:1011E0002B813C81821B930B0E94CA0627C08981F8
:1011F0009A812B813C81AC01429FC001439F900D9D
:10120000529F900D11240E94CA0618C089819A81AC
:101210002B813C81B9010E944325CB010E94CA0663
:101220000DC08D81282F30E08E819F81FC01E20F5F
:10123000F31F8081882F90E00E94CA068D818F5F06
:101240008D838D81282F30E08E819F81FC01E20FFC
:10125000F31F8081882309F05BCF0E949A062996AC
:101260000FB6F894DEBF0FBECDBFCF91DF910895CA
:10127000DF93CF93CDB7DEB7AFE5B0E0EFE5F0E0B9
:10128000808180688C93CF91DF910895DF93CF9315
:10129000CDB7DEB7AFE5B0E0EFE5F0E080818F7766
:1012A0008C93CF91DF910895DF93CF9300D00F926D
:1012B000CDB7DEB78983ABE5B0E0EBE5F0E0808148
:1012C00080648C938981282F30E03B832A838A8134
:1012D0009B818130910521F12A813B8122303105AA
:1012E0002CF48A819B81009761F046C02A813B8162
:1012F0002230310521F18A819B818330910571F182
:101300003BC0A5E5B0E0E5E5F0E080818E7F8C9301
:10131000A5E5B0E0E5E5F0E080818D7F8C932CC001
:10132000A5E5B0E0E5E5F0E0808181608C93A5E57E
:10133000B0E0E5E5F0E080818D7F8C931DC0A5E5F0
:10134000B0E0E5E5F0E080818E7F8C93A5E5B0E02C
:10135000E5E5F0E0808182608C930EC0A5E5B0E009
:10136000E5E5F0E0808181608C93A5E5B0E0E5E5FE
:10137000F0E0808182608C930F900F900F90CF915E
:10138000DF910895DF93CF9300D00F92CDB7DEB7F2
:101390008983ABE5B0E0EBE5F0E0808180688C9379
:1013A0008981282F30E03B832A838A819B81813089
:1013B000910521F12A813B81223031052CF48A816B
:1013C0009B81009761F046C02A813B812230310524
:1013D00021F18A819B818330910571F13BC0A5E5A4
:1013E000B0E0E5E5F0E080818B7F8C93A5E5B0E08F
:1013F000E5E5F0E08081877F8C932CC0A5E5B0E027
:10140000E5E5F0E0808184608C93A5E5B0E0E5E55A
:10141000F0E08081877F8C931DC0A5E5B0E0E5E515
:10142000F0E080818B7F8C93A5E5B0E0E5E5F0E00E
:10143000808188608C930EC0A5E5B0E0E5E5F0E022
:10144000808184608C93A5E5B0E0E5E5F0E08081E3
:1014500088608C930F900F900F90CF91DF9108953B
:10146000DF93CF9300D00F92CDB7DEB78983ABE582
:10147000B0E0EBE5F0E0808180628C938981282FD9
:1014800030E03B832A838A819B818230910531F051
:101490002A813B812330310549F00FC0A4E5B0E03B
:1014A000E4E5F0E080818F7B8C9307C0A4E5B0E099
:1014B000E4E5F0E0808180648C930F900F900F90B2
:1014C000CF91DF910895DF93CF93CDB7DEB7ABE532
:1014D000B0E0EBE5F0E080818F7B8C93CF91DF91E2
:1014E0000895DF93CF93CDB7DEB7ABE5B0E0EBE582
:1014F000F0E080818F778C93CF91DF910895DF9317
:10150000CF93CDB7DEB7ABE5B0E0EBE5F0E080819F
:101510008F7D8C93CF91DF910895DF93CF93CDB7DB
:10152000DEB7AAE5B0E0EAE5F0E0808180648C9364
:10153000CF91DF910895DF93CF93CDB7DEB7AAE5C2
:10154000B0E0EAE5F0E0808180688C93CF91DF9194
:101550000895DF93CF93CDB7DEB7AAE5B0E0EAE513
:10156000F0E0808180628C93CF91DF910895DF93CA
:10157000CF9300D000D0CDB7DEB789836A8389814D
:10158000282F30E03C832B838B819C818130910517
:1015900089F12B813C81223031052CF48B819C8197
:1015A000009769F074C02B813C8122303105E1F154
:1015B0008B819C818330910509F450C068C08A8179
:1015C000813029F4EAE3F0E08FEF808360C08A8104
:1015D000882321F4EAE3F0E0108259C08A81823046
:1015E00009F055C0EAE3F0E01082EBE3F0E08FEFA2
:1015F00080834DC08A81813029F4E7E3F0E08FEFEA
:10160000808345C08A81882321F4E7E3F0E01082DB
:101610003EC08A818230D9F5E7E3F0E01082E8E34A
:10162000F0E08FEF808333C08A81813029F4E4E3D6
:10163000F0E08FEF80832BC08A81882321F4E4E3DC
:10164000F0E0108224C08A81823009F5E4E3F0E002
:101650001082E5E3F0E08FEF808319C08A8181304A
:1016600029F4E1E3F0E08FEF808311C08A818823C1
:1016700021F4E1E3F0E010820AC08A81823039F47B
:10168000E1E3F0E01082E2E3F0E08FEF80830F907F
:101690000F900F900F90CF91DF910895DF93CF932C
:1016A00000D000D0CDB7DEB789836A838981282F27
:1016B00030E03C832B838B819C8181309105D1F07C
:1016C0002B813C81223031052CF48B819C81009749
:1016D00061F01EC02B813C812230310581F08B816D
:1016E0009C818330910581F013C0EBE3F0E08A81A7
:1016F00080830EC0EBE3F0E08A81808309C0EBE3D6
:10170000F0E08A81808304C0EBE3F0E08A8180838B
:101710000F900F900F900F90CF91DF910895DF936E
:10172000CF93CDB7DEB729970FB6F894DEBF0FBEC3
:10173000CDBF89836A834B838B81813009F06FC071
:101740008981282F30E039872887888599858130DD
:10175000910549F128853985223031052CF4888599
:101760009985009761F090C128853985223031052F
:1017700071F18885998583309105E9F185C1AAE3E6
:10178000B0E0EAE3F0E08081482F8A81282F30E042
:1017900081E090E0022E02C0880F991F0A94E2F7C0
:1017A000842B8C9371C1A7E3B0E0E7E3F0E0808184
:1017B000482F8A81282F30E081E090E0022E02C07D
:1017C000880F991F0A94E2F7842B8C935DC1A4E3E0
:1017D000B0E0E4E3F0E08081482F8A81282F30E0F8
:1017E00081E090E0022E02C0880F991F0A94E2F770
:1017F000842B8C9349C1A1E3B0E0E1E3F0E0808168
:10180000482F8A81282F30E081E090E0022E02C02C
:10181000880F991F0A94E2F7842B8C9335C18B8132
:10182000823009F0BEC08981282F30E03F832E83AB
:101830008E819F818130910509F43EC02E813F81C8
:10184000223031052CF48E819F81009771F01CC1EC
:101850002E813F812230310509F455C08E819F8150
:101860008330910509F476C00FC1AAE3B0E0EAE342
:10187000F0E08081482F8A81282F30E081E090E0DD
:1018800002C0880F991F2A95E2F7809584238C93D4
:10189000ABE3B0E0EBE3F0E08081482F8A81282FB2
:1018A00030E081E090E0022E02C0880F991F0A9478
:1018B000E2F7842B8C93E8C0A7E3B0E0E7E3F0E025
:1018C0008081482F8A81282F30E081E090E002C09B
:1018D000880F991F2A95E2F7809584238C93A8E3BB
:1018E000B0E0E8E3F0E08081482F8A81282F30E0E3
:1018F00081E090E0022E02C0880F991F0A94E2F75F
:10190000842B8C93C1C0A4E3B0E0E4E3F0E08081D9
:10191000482F8A81282F30E081E090E002C0880FB4
:10192000991F2A95E2F7809584238C93A5E3B0E074
:10193000E5E3F0E08081482F8A81282F30E081E0C4
:1019400090E0022E02C0880F991F0A94E2F7842BC0
:101950008C939AC0A1E3B0E0E1E3F0E08081482FEE
:101960008A81282F30E081E090E002C0880F991F23
:101970002A95E2F7809584238C93A2E3B0E0E2E31A
:10198000F0E08081482F8A81282F30E081E090E0CC
:10199000022E02C0880F991F0A94E2F7842B8C93C1
:1019A00073C08981282F30E03D832C838C819D81F9
:1019B0008130910559F12C813D81223031052CF483
:1019C0008C819D81009769F05FC02C813D81223020
:1019D000310589F18C819D818330910509F440C0E6
:1019E00053C0AAE3B0E0EAE3F0E08081482F8A81A7
:1019F000282F30E081E090E0022E02C0880F991F6E
:101A00000A94E2F7809584238C933EC0A7E3B0E06C
:101A1000E7E3F0E08081482F8A81282F30E081E0E1
:101A200090E0022E02C0880F991F0A94E2F7809579
:101A300084238C9329C0A4E3B0E0E4E3F0E0808148
:101A4000482F8A81282F30E081E090E0022E02C0EA
:101A5000880F991F0A94E2F7809584238C9314C011
:101A6000A1E3B0E0E1E3F0E08081482F8A81282FF4
:101A700030E081E090E0022E02C0880F991F0A94A6
:101A8000E2F7809584238C9329960FB6F894DEBFF5
:101A90000FBECDBFCF91DF910895DF93CF93CDB728
:101AA000DEB727970FB6F894DEBF0FBECDBF898390
:101AB0006A834B838B81813009F06FC08981282F25
:101AC00030E03F832E838E819F818130910549F1E3
:101AD0002E813F81223031052CF48E819F81009729
:101AE00061F0CEC02E813F812230310571F18E81AF
:101AF0009F8183309105E9F1C3C0ABE3B0E0EBE334
:101B0000F0E08081482F8A81282F30E081E090E04A
:101B1000022E02C0880F991F0A94E2F7842B8C933F
:101B2000AFC0A8E3B0E0E8E3F0E08081482F8A810D
:101B3000282F30E081E090E0022E02C0880F991F2C
:101B40000A94E2F7842B8C939BC0A5E3B0E0E5E315
:101B5000F0E08081482F8A81282F30E081E090E0FA
:101B6000022E02C0880F991F0A94E2F7842B8C93EF
:101B700087C0A2E3B0E0E2E3F0E08081482F8A81F1
:101B8000282F30E081E090E0022E02C0880F991FDC
:101B90000A94E2F7842B8C9373C08981282F30E05C
:101BA0003D832C838C819D818130910559F12C815D
:101BB0003D81223031052CF48C819D81009769F0A4
:101BC0005FC02C813D812230310589F18C819D815E
:101BD0008330910509F440C053C0ABE3B0E0EBE3C0
:101BE000F0E08081482F8A81282F30E081E090E06A
:101BF000022E02C0880F991F0A94E2F78095842371
:101C00008C933EC0A8E3B0E0E8E3F0E08081482F89
:101C10008A81282F30E081E090E0022E02C0880FF8
:101C2000991F0A94E2F7809584238C9329C0A5E339
:101C3000B0E0E5E3F0E08081482F8A81282F30E092
:101C400081E090E0022E02C0880F991F0A94E2F70B
:101C5000809584238C9314C0A2E3B0E0E2E3F0E02B
:101C60008081482F8A81282F30E081E090E0022E89
:101C700002C0880F991F0A94E2F7809584238C9301
:101C800027960FB6F894DEBF0FBECDBFCF91DF9180
:101C90000895DF93CF9300D000D0CDB7DEB78A830D
:101CA0008A81282F30E03C832B838B819C8181307B
:101CB0009105D1F02B813C81223031052CF48B81B0
:101CC0009C81009761F01EC02B813C812230310540
:101CD00081F08B819C818330910581F013C0E9E311
:101CE000F0E0808189830EC0E9E3F0E080818983A0
:101CF00009C0E9E3F0E08081898304C0E9E3F0E012
:101D00008081898389810F900F900F900F90CF91E0
:101D1000DF910895DF93CF9300D000D00F92CDB71D
:101D2000DEB78A836B838A81282F30E03D832C8342
:101D30004C815D814130510541F18C819D81823022
:101D4000910534F42C813D812115310561F052C09B
:101D50004C815D814230510551F18C819D818330F0
:101D60009105B9F147C0E9E3F0E08081282F30E028
:101D70008B81882F90E0A90102C0559547958A95DF
:101D8000E2F7CA018170898335C0E6E3F0E0808123
:101D9000282F30E08B81882F90E0A90102C0559553
:101DA00047958A95E2F7CA018170898323C0E3E3EE
:101DB000F0E08081282F30E08B81882F90E0A9010E
:101DC00002C0559547958A95E2F7CA0181708983CB
:101DD00011C0E0E3F0E08081282F30E08B81882F74
:101DE00090E0A90102C0559547958A95E2F7CA018E
:101DF0008170898389810F900F900F900F900F90C1
:101E0000CF91DF910895DF93CF93CDB7DEB782E016
:101E100060E041E00E948F0B82E060E041E00E94C0
:101E20004D0D82E061E041E00E948F0B82E061E0B5
:101E300041E00E944D0D82E062E041E00E948F0B84
:101E400082E062E041E00E944D0D82E063E041E00B
:101E50000E948F0B82E063E041E00E944D0D82E022
:101E600064E042E00E948F0B82E065E042E00E9465
:101E70008F0B82E066E042E00E948F0B82E067E019
:101E800042E00E948F0BCF91DF9108950F931F9333
:101E9000DF93CF93CDB7DEB7C15ED0400FB6F894D5
:101EA000DEBF0FBECDBF82E060E040E00E944D0D7E
:101EB00082E064E00E948A0E882309F0C2C082E0BA
:101EC00064E00E948A0E8823D1F3FE01E352FF4FA3
:101ED00080E090E0A0E2B1E480839183A283B383A9
:101EE0008E0107521F4FFE01E352FF4F6081718147
:101EF0008281938120E030E04AEF54E40E941F0287
:101F0000DC01CB01F80180839183A283B383FE01BE
:101F1000E752FF4F608171818281938120E030E040
:101F200040E85FE30E942504882344F4FE01E9525F
:101F3000FF4F81E090E09183808364C0FE01E7520F
:101F4000FF4F608171818281938120E03FEF4FE7F5
:101F500057E40E94C50318160CF043C0FE01E3527B
:101F6000FF4F608171818281938120E030E040E207
:101F700051E40E941F02DC01CB018E0109521F4F68
:101F8000BC01CD010E944900DC01CB01F801918325
:101F900080831FC0FE01EB52FF4F88EC90E09183DD
:101FA0008083FE01EB52FF4F808191810197F1F711
:101FB000FE01EB52FF4F91838083DE01A952BF4F98
:101FC000FE01E952FF4F80819181019711969C9308
:101FD0008E93FE01E952FF4F808191810097D1F6E7
:101FE00028C08E0109521F4FFE01E752FF4F60814A
:101FF0007181828193810E944900DC01CB01F8014B
:1020000091838083DE01AD52BF4FFE01E952FF4F45
:102010008081918111969C938E93FE01ED52FF4F2A
:10202000808191810197F1F7FE01ED52FF4F91837D
:102030008083F1E0CF51DF4FF883C15ED0400C9434
:10204000CB1A82E065E00E948A0E882309F0C2C0A4
:1020500082E065E00E948A0E8823D1F3FE01E153FD
:10206000FF4F80E090E0A0E2B1E480839183A283FF
:10207000B3838E0105531F4FFE01E153FF4F608173
:1020800071818281938120E030E04AEF54E40E9424
:102090001F02DC01CB01F80180839183A283B3830B
:1020A000FE01E553FF4F608171818281938120E0C1
:1020B00030E040E85FE30E942504882344F4FE01F9
:1020C000E753FF4F81E090E09183808364C0FE017D
:1020D000E553FF4F608171818281938120E03FEF62
:1020E0004FE757E40E94C50318160CF043C0FE01E9
:1020F000E153FF4F608171818281938120E030E064
:1021000040E251E40E941F02DC01CB018E01075323
:102110001F4FBC01CD010E944900DC01CB01F80139
:10212000918380831FC0FE01E953FF4F88EC90E04C
:1021300091838083FE01E953FF4F80819181019754
:10214000F1F7FE01E953FF4F91838083DE01A7532E
:10215000BF4FFE01E753FF4F808191810197119698
:102160009C938E93FE01E753FF4F808191810097EE
:10217000D1F628C08E0107531F4FFE01E553FF4FD4
:1021800060817181828193810E944900DC01CB01D1
:10219000F80191838083DE01AB53BF4FFE01E7530B
:1021A000FF4F8081918111969C938E93FE01EB539A
:1021B000FF4F808191810197F1F7FE01EB53FF4FB3
:1021C00091838083F2E0CF51DF4FF883C15ED0402E
:1021D0000C94CB1A82E066E00E948A0E882309F0F4
:1021E000C2C082E066E00E948A0E8823D1F3FE011D
:1021F000EF53FF4F80E090E0A0E2B1E48083918351
:10220000A283B3838E0103541F4FFE01EF53FF4F90
:10221000608171818281938120E030E04AEF54E453
:102220000E941F02DC01CB01F80180839183A2830D
:10223000B383FE01E354FF4F6081718182819381FA
:1022400020E030E040E85FE30E942504882344F466
:10225000FE01E554FF4F81E090E09183808364C0EC
:10226000FE01E354FF4F608171818281938120E000
:102270003FEF4FE757E40E94C50318160CF043C028
:10228000FE01EF53FF4F608171818281938120E0D5
:1022900030E040E251E40E941F02DC01CB018E01DC
:1022A00005541F4FBC01CD010E944900DC01CB0148
:1022B000F801918380831FC0FE01E754FF4F88EC33
:1022C00090E091838083FE01E754FF4F80819181EC
:1022D0000197F1F7FE01E754FF4F91838083DE0100
:1022E000A554BF4FFE01E554FF4F808191810197B6
:1022F00011969C938E93FE01E554FF4F808191814E
:102300000097D1F628C08E0105541F4FFE01E354FB
:10231000FF4F60817181828193810E944900DC01BD
:10232000CB01F80191838083DE01A954BF4FFE01E8
:10233000E554FF4F8081918111969C938E93FE010D
:10234000E954FF4F808191810197F1F7FE01E95433
:10235000FF4F91838083F3E0CF51DF4FF883C15E5D
:10236000D0400C94CB1A82E067E00E948A0E88234A
:1023700009F0C2C082E067E00E948A0E8823D1F390
:10238000FE01ED54FF4F80E090E0A0E2B1E48083D5
:102390009183A283B3838E0101551F4FFE01ED543B
:1023A000FF4F608171818281938120E030E04AEFAC
:1023B00054E40E941F02DC01CB01F8018083918369
:1023C000A283B383FE01E155FF4F60817181828159
:1023D000938120E030E040E85FE30E9425048823F9
:1023E00044F4FE01E355FF4F81E090E09183808348
:1023F00064C0FE01E155FF4F60817181828193814C
:1024000020E03FEF4FE757E40E94C50318160CF099
:1024100043C0FE01ED54FF4F608171818281938141
:1024200020E030E040E251E40E941F02DC01CB01D9
:102430008E0103551F4FBC01CD010E944900DC01F4
:10244000CB01F801918380831FC0FE01E555FF4F4A
:1024500088EC90E091838083FE01E555FF4F8081F9
:1024600091810197F1F7FE01E555FF4F918380833C
:10247000DE01A355BF4FFE01E355FF4F80819181DF
:10248000019711969C938E93FE01E355FF4F808137
:1024900091810097D1F628C08E0103551F4FFE0190
:1024A000E155FF4F60817181828193810E944900D3
:1024B000DC01CB01F80191838083DE01A755BF4F7A
:1024C000FE01E355FF4F8081918111969C938E937D
:1024D000FE01E755FF4F808191810197F1F7FE01E1
:1024E000E755FF4F91838083F4E0CF51DF4FF883AE
:1024F000C15ED0400C94CB1A82E060E041E00E94C3
:102500004D0D82E061E040E00E944D0D82E064E00C
:102510000E948A0E882309F0C2C082E064E00E9413
:102520008A0E8823D1F3FE01EB55FF4F80E090E047
:10253000A0E2B1E480839183A283B3838E010F551F
:102540001F4FFE01EB55FF4F6081718182819381A6
:1025500020E030E04AEF54E40E941F02DC01CB018E
:10256000F80180839183A283B383FE01EF55FF4F6F
:10257000608171818281938120E030E040E85FE3F7
:102580000E942504882344F4FE01E156FF4F81E0B8
:1025900090E09183808364C0FE01EF55FF4F60811E
:1025A00071818281938120E03FEF4FE757E40E94E1
:1025B000C50318160CF043C0FE01EB55FF4F6081B8
:1025C00071818281938120E030E040E251E40E94F9
:1025D0001F02DC01CB018E0101561F4FBC01CD0152
:1025E0000E944900DC01CB01F801918380831FC068
:1025F000FE01E356FF4F88EC90E091838083FE015B
:10260000E356FF4F808191810197F1F7FE01E35678
:10261000FF4F91838083DE01A156BF4FFE01E1563B
:10262000FF4F80819181019711969C938E93FE01BB
:10263000E156FF4F808191810097D1F628C08E012D
:1026400001561F4FFE01EF55FF4F6081718182815E
:1026500093810E944900DC01CB01F80191838083C2
:10266000DE01A556BF4FFE01E156FF4F80819181EB
:1026700011969C938E93FE01E556FF4F80819181C8
:102680000197F1F7FE01E556FF4F91838083F5E056
:10269000CF51DF4FF883C15ED0400C94CB1A82E05B
:1026A00065E00E948A0E882309F0C1C082E065E0DF
:1026B0000E948A0E8823D1F3FE01E956FF4F80E085
:1026C00090E0A0E2B1E480839183A283B3838E0182
:1026D0000D561F4FFE01E956FF4F608171818281C7
:1026E000938120E030E04AEF54E40E941F02DC01B5
:1026F000CB01F80180839183A283B383FE01ED5661
:10270000FF4F608171818281938120E030E040E859
:102710005FE30E942504882344F4FE01EF56FF4F37
:1027200081E090E09183808364C0FE01ED56FF4F0D
:10273000608171818281938120E03FEF4FE757E410
:102740000E94C50318160CF043C0FE01E956FF4F66
:10275000608171818281938120E030E040E251E428
:102760000E941F02DC01CB018E010F561F4FBC01DE
:10277000CD010E944900DC01CB01F80191838083E7
:102780001FC0FE01E157FF4F88EC90E091838083EA
:10279000FE01E157FF4F808191810197F1F7FE0122
:1027A000E157FF4F91838083DE01AF56BF4FFE019B
:1027B000EF56FF4F80819181019711969C938E93E4
:1027C000FE01EF56FF4F808191810097D1F628C01E
:1027D0008E010F561F4FFE01ED56FF4F6081718134
:1027E000828193810E944900DC01CB01F801918331
:1027F0008083DE01A357BF4FFE01EF56FF4F80815C
:10280000918111969C938E93FE01E357FF4F808137
:1028100091810197F1F7FE01E357FF4F9183808388
:10282000F6E0CF51DF4FF883C15ED040B4C682E0FE
:1028300066E00E948A0E882309F0C1C082E066E04B
:102840000E948A0E8823D1F3FE01E757FF4F80E0F4
:1028500090E0A0E2B1E480839183A283B3838E01F0
:102860000B571F4FFE01E757FF4F60817181828137
:10287000938120E030E04AEF54E40E941F02DC0123
:10288000CB01F80180839183A283B383FE01EB57D0
:10289000FF4F608171818281938120E030E040E8C8
:1028A0005FE30E942504882344F4FE01ED57FF4FA7
:1028B00081E090E09183808364C0FE01EB57FF4F7D
:1028C000608171818281938120E03FEF4FE757E47F
:1028D0000E94C50318160CF043C0FE01E757FF4FD6
:1028E000608171818281938120E030E040E251E497
:1028F0000E941F02DC01CB018E010D571F4FBC014E
:10290000CD010E944900DC01CB01F8019183808355
:102910001FC0FE01EF57FF4F88EC90E0918380834A
:10292000FE01EF57FF4F808191810197F1F7FE0182
:10293000EF57FF4F91838083DE01AD57BF4FFE01FC
:10294000ED57FF4F80819181019711969C938E9353
:10295000FE01ED57FF4F808191810097D1F628C08D
:102960008E010D571F4FFE01EB57FF4F60817181A4
:10297000828193810E944900DC01CB01F80191839F
:102980008083DE01A158BF4FFE01ED57FF4F8081CC
:10299000918111969C938E93FE01E158FF4F8081A7
:1029A00091810197F1F7FE01E158FF4F91838083F8
:1029B000F7E0CF51DF4FF883C15ED040ECC582E035
:1029C00067E00E948A0E882309F0C1C082E067E0B8
:1029D0000E948A0E8823D1F3FE01E558FF4F80E064
:1029E00090E0A0E2B1E480839183A283B3838E015F
:1029F00009581F4FFE01E558FF4F608171818281A8
:102A0000938120E030E04AEF54E40E941F02DC0191
:102A1000CB01F80180839183A283B383FE01E9583F
:102A2000FF4F608171818281938120E030E040E836
:102A30005FE30E942504882344F4FE01EB58FF4F16
:102A400081E090E09183808364C0FE01E958FF4FEC
:102A5000608171818281938120E03FEF4FE757E4ED
:102A60000E94C50318160CF043C0FE01E558FF4F45
:102A7000608171818281938120E030E040E251E405
:102A80000E941F02DC01CB018E010B581F4FBC01BD
:102A9000CD010E944900DC01CB01F80191838083C4
:102AA0001FC0FE01ED58FF4F88EC90E091838083BA
:102AB000FE01ED58FF4F808191810197F1F7FE01F2
:102AC000ED58FF4F91838083DE01AB58BF4FFE016D
:102AD000EB58FF4F80819181019711969C938E93C3
:102AE000FE01EB58FF4F808191810097D1F628C0FD
:102AF0008E010B581F4FFE01E958FF4F6081718115
:102B0000828193810E944900DC01CB01F80191830D
:102B10008083DE01AF58BF4FFE01EB58FF4F80812D
:102B2000918111969C938E93FE01EF58FF4F808107
:102B300091810197F1F7FE01EF58FF4F9183808358
:102B4000F8E0CF51DF4FF883C15ED04024C582E06A
:102B500061E041E00E944D0D82E062E040E00E94B1
:102B60004D0D82E064E00E948A0E882309F0C1C006
:102B700082E064E00E948A0E8823D1F3FE01E359CB
:102B8000FF4F80E090E0A0E2B1E480839183A283D4
:102B9000B3838E0107591F4FFE01E359FF4F608138
:102BA00071818281938120E030E04AEF54E40E94F9
:102BB0001F02DC01CB01F80180839183A283B383E0
:102BC000FE01E759FF4F608171818281938120E08E
:102BD00030E040E85FE30E942504882344F4FE01CE
:102BE000E959FF4F81E090E09183808364C0FE014A
:102BF000E759FF4F608171818281938120E03FEF2F
:102C00004FE757E40E94C50318160CF043C0FE01BD
:102C1000E359FF4F608171818281938120E030E030
:102C200040E251E40E941F02DC01CB018E010959F0
:102C30001F4FBC01CD010E944900DC01CB01F8010E
:102C4000918380831FC0FE01EB59FF4F88EC90E019
:102C500091838083FE01EB59FF4F80819181019721
:102C6000F1F7FE01EB59FF4F91838083DE01A959F3
:102C7000BF4FFE01E959FF4F808191810197119665
:102C80009C938E93FE01E959FF4F808191810097BB
:102C9000D1F628C08E0109591F4FFE01E759FF4F99
:102CA00060817181828193810E944900DC01CB01A6
:102CB000F80191838083DE01AD59BF4FFE01E959D0
:102CC000FF4F8081918111969C938E93FE01ED5967
:102CD000FF4F808191810197F1F7FE01ED59FF4F80
:102CE00091838083F9E0CF51DF4FF883C15ED040FC
:102CF00052C482E065E00E948A0E882309F0C1C0B8
:102D000082E065E00E948A0E8823D1F3FE01E15A39
:102D1000FF4F80E090E0A0E2B1E480839183A28342
:102D2000B3838E01055A1F4FFE01E15AFF4F6081A8
:102D300071818281938120E030E04AEF54E40E9467
:102D40001F02DC01CB01F80180839183A283B3834E
:102D5000FE01E55AFF4F608171818281938120E0FD
:102D600030E040E85FE30E942504882344F4FE013C
:102D7000E75AFF4F81E090E09183808364C0FE01B9
:102D8000E55AFF4F608171818281938120E03FEF9E
:102D90004FE757E40E94C50318160CF043C0FE012C
:102DA000E15AFF4F608171818281938120E030E0A0
:102DB00040E251E40E941F02DC01CB018E01075A60
:102DC0001F4FBC01CD010E944900DC01CB01F8017D
:102DD000918380831FC0FE01E95AFF4F88EC90E089
:102DE00091838083FE01E95AFF4F80819181019791
:102DF000F1F7FE01E95AFF4F91838083DE01A75A64
:102E0000BF4FFE01E75AFF4F8081918101971196D4
:102E10009C938E93FE01E75AFF4F8081918100972A
:102E2000D1F628C08E01075A1F4FFE01E55AFF4F09
:102E300060817181828193810E944900DC01CB0114
:102E4000F80191838083DE01AB5ABF4FFE01E75A40
:102E5000FF4F8081918111969C938E93FE01EB5AD6
:102E6000FF4F808191810197F1F7FE01EB5AFF4FEF
:102E700091838083FAE0CF51DF4FF883C15ED04069
:102E80008AC382E066E00E948A0E882309F0C1C0EE
:102E900082E066E00E948A0E8823D1F3FE01EF5A99
:102EA000FF4F80E090E0A0E2B1E480839183A283B1
:102EB000B3838E01035B1F4FFE01EF5AFF4F60810A
:102EC00071818281938120E030E04AEF54E40E94D6
:102ED0001F02DC01CB01F80180839183A283B383BD
:102EE000FE01E35BFF4F608171818281938120E06D
:102EF00030E040E85FE30E942504882344F4FE01AB
:102F0000E55BFF4F81E090E09183808364C0FE0128
:102F1000E35BFF4F608171818281938120E03FEF0D
:102F20004FE757E40E94C50318160CF043C0FE019A
:102F3000EF5AFF4F608171818281938120E030E000
:102F400040E251E40E941F02DC01CB018E01055BCF
:102F50001F4FBC01CD010E944900DC01CB01F801EB
:102F6000918380831FC0FE01E75BFF4F88EC90E0F8
:102F700091838083FE01E75BFF4F80819181019700
:102F8000F1F7FE01E75BFF4F91838083DE01A55BD4
:102F9000BF4FFE01E55BFF4F808191810197119644
:102FA0009C938E93FE01E55BFF4F8081918100979A
:102FB000D1F628C08E01055B1F4FFE01E35BFF4F7A
:102FC00060817181828193810E944900DC01CB0183
:102FD000F80191838083DE01A95BBF4FFE01E55BB1
:102FE000FF4F8081918111969C938E93FE01E95B46
:102FF000FF4F808191810197F1F7FE01E95BFF4F5F
:1030000091838083FBE0CF51DF4FF883C15ED040D6
:10301000C2C282E067E00E948A0E882309F092C053
:1030200082E067E00E948A0E8823D1F3FE01ED5B07
:10303000FF4F80E090E0A0E2B1E480839183A2831F
:10304000B3838E01015C1F4FFE01ED5BFF4F60817A
:1030500071818281938120E030E04AEF54E40E9444
:103060001F02DC01CB01F80180839183A283B3832B
:10307000FE01FF96608171818281938120E030E0C2
:1030800040E85FE30E94250488232CF481E090E06F
:103090009EAF8DAF46C0FE01FF9660817181828137
:1030A000938120E03FEF4FE757E40E94C5031816D5
:1030B00064F5FE01ED5BFF4F608171818281938138
:1030C00020E030E040E251E40E941F02DC01CB012D
:1030D000BC01CD010E944900DC01CB019EAF8DAF48
:1030E0000FC088EC90E09CAF8BAF8BAD9CAD01978F
:1030F000F1F79CAF8BAF8DAD9EAD01979EAF8DAFBD
:103100008DAD9EAD009769F716C0FE01FF966081F8
:103110007181828193810E944900DC01CB019EAFC5
:103120008DAF8DAD9EAD9AAF89AF89AD9AAD019748
:10313000F1F79AAF89AFFCE0CF51DF4FF883C15E62
:10314000D04029C282E062E041E00E944D0D82E061
:1031500063E040E00E944D0D82E064E00E948A0E30
:10316000882309F07FC082E064E00E948A0E8823F1
:10317000D1F380E090E0A0E2B1E48DAB9EABAFABC9
:10318000B8AF6DA97EA98FA998AD20E030E04AEFD5
:1031900054E40E941F02DC01CB0189AB9AABABABBC
:1031A000BCAB69A97AA98BA99CA920E030E040E8D2
:1031B0005FE30E94250488232CF481E090E098AB23
:1031C0008FA73FC069A97AA98BA99CA920E03FEFEE
:1031D0004FE757E40E94C50318164CF56DA97EA968
:1031E0008FA998AD20E030E040E251E40E941F0238
:1031F000DC01CB01BC01CD010E944900DC01CB0107
:1032000098AB8FA70FC088EC90E09EA78DA78DA5E7
:103210009EA50197F1F79EA78DA78FA598A9019765
:1032200098AB8FA78FA598A9009769F714C069A9D3
:103230007AA98BA99CA90E944900DC01CB0198AB1B
:103240008FA78FA598A99CA78BA78BA59CA5019755
:10325000F1F79CA78BA78DE0CF51DF4F8883C15E2C
:10326000D04099C182E065E00E948A0E882309F06F
:103270007FC082E065E00E948A0E8823D1F380E05F
:1032800090E0A0E2B1E48FA398A7A9A7BAA76FA185
:1032900078A589A59AA520E030E04AEF54E40E9481
:1032A0001F02DC01CB018BA39CA3ADA3BEA36BA12A
:1032B0007CA18DA19EA120E030E040E85FE30E9468
:1032C000250488232CF481E090E09AA389A33FC0D1
:1032D0006BA17CA18DA19EA120E03FEF4FE757E4B9
:1032E0000E94C50318164CF56FA178A589A59AA56B
:1032F00020E030E040E251E40E941F02DC01CB01FB
:10330000BC01CD010E944900DC01CB019AA389A335
:103310000FC088EC90E098A38F8F8F8D98A10197B4
:10332000F1F798A38F8F89A19AA101979AA389A3F6
:1033300089A19AA1009769F714C06BA17CA18DA106
:103340009EA10E944900DC01CB019AA389A389A117
:103350009AA19E8F8D8F8D8D9E8D0197F1F79E8FF7
:103360008D8FEEE0CF51DF4FE883C15ED04013C1B7
:1033700082E066E00E948A0E882309F07FC082E026
:1033800066E00E948A0E8823D1F380E090E0A0E2FC
:10339000B1E4898F9A8FAB8FBC8F698D7A8D8B8DBD
:1033A0009C8D20E030E04AEF54E40E941F02DC01D3
:1033B000CB018D8B9E8BAF8BB88F6D897E898F896A
:1033C000988D20E030E040E85FE30E9425048823E8
:1033D0002CF481E090E09C8B8B8B3FC06D897E89C3
:1033E0008F89988D20E03FEF4FE757E40E94C50397
:1033F00018164CF5698D7A8D8B8D9C8D20E030E010
:1034000040E251E40E941F02DC01CB01BC01CD016E
:103410000E944900DC01CB019C8B8B8B0FC088EC98
:1034200090E09A8B898B89899A890197F1F79A8B19
:10343000898B8B899C8901979C8B8B8B8B899C8931
:10344000009769F714C06D897E898F89988D0E94D5
:103450004900DC01CB019C8B8B8B8B899C89988BE1
:103460008F878F8598890197F1F7988B8F87FFE079
:10347000CF51DF4FF883C15ED0408DC082E067E05E
:103480000E948A0E882309F07FC082E067E00E94D4
:103490008A0E8823D1F380E090E0A0E2B1E48B872C
:1034A0009C87AD87BE876B857C858D859E8520E05A
:1034B00030E04AEF54E40E941F02DC01CB018F830D
:1034C0009887A987BA876F81788589859A8520E052
:1034D00030E040E85FE30E94250488232CF481E07B
:1034E00090E09E838D833FC06F81788589859A8522
:1034F00020E03FEF4FE757E40E94C50318164CF554
:103500006B857C858D859E8520E030E040E251E42E
:103510000E941F02DC01CB01BC01CD010E944900C9
:10352000DC01CB019E838D830FC088EC90E09C83EF
:103530008B838B819C810197F1F79C838B838D8199
:103540009E8101979E838D838D819E81009769F76F
:1035500014C06F81788589859A850E944900DC01B5
:10356000CB019E838D838D819E819A8389838981FE
:103570009A810197F1F79A83898380E1CF51DF4FD8
:103580008883C15ED04007C082E063E041E00E94D2
:103590004D0D0C94530FCF51DF4F8881C15ED04049
:1035A000CF51DF4F0FB6F894DEBF0FBECDBFCF9126
:1035B000DF911F910F9108950F931F93DF93CF9386
:1035C000CDB7DEB7C659D0400FB6F894DEBF0FBEF8
:1035D000CDBF80E061E00E94B70A80E060E00E9419
:1035E0004E0BFE01ED56FF4F80E090E0A8E4B2E400
:1035F00080839183A283B3838E0101571F4FFE0105
:10360000ED56FF4F608171818281938120E030E02F
:103610004AEF54E40E941F02DC01CB01F8018083D1
:103620009183A283B383FE01E157FF4F60817181D3
:103630008281938120E030E040E85FE30E9425042E
:10364000882344F4FE01E357FF4F81E090E091832B
:10365000808364C0FE01E157FF4F608171818281E8
:10366000938120E03FEF4FE757E40E94C50318160F
:103670000CF043C0FE01ED56FF4F608171818281E5
:10368000938120E030E040E251E40E941F02DC011F
:10369000CB018E0103571F4FBC01CD010E94490091
:1036A000DC01CB01F801918380831FC0FE01E55747
:1036B000FF4F88EC90E091838083FE01E557FF4F38
:1036C000808191810197F1F7FE01E557FF4F9183CA
:1036D0008083DE01A357BF4FFE01E357FF4F808178
:1036E0009181019711969C938E93FE01E357FF4FB2
:1036F000808191810097D1F627C08E0103571F4F1B
:10370000FE01E157FF4F60817181828193810E94A8
:103710004900DC01CB01F80191838083DE01A757CA
:10372000BF4FFE01E357FF4F808191818D939C93A2
:10373000FE01E757FF4F808191810197F1F7FE016C
:10374000E757FF4F9183808380E064E040E00E9470
:103750004D0DFE01EB57FF4F80E090E0A0E8BFE386
:1037600080839183A283B3838E010F571F4FFE0185
:10377000EB57FF4F60817181828193812BEA3AEA96
:103780004AE250E40E941F02DC01CB01F801808371
:103790009183A283B383FE01EF57FF4F6081718154
:1037A0008281938120E030E040E85FE30E942504BD
:1037B000882334F4FE01E058FF4F81E08083E0C0AD
:1037C000FE01EF57FF4F608171818281938120E07C
:1037D00030E04FE753E40E94C50318160CF0C0C058
:1037E000FE01EB57FF4F608171818281938120E060
:1037F00030E04AE754E40E941903DC01CB01FE01EA
:10380000E458FF4F80839183A283B3838E010858CD
:103810001F4FFE01E458FF4F6081718182819381C7
:1038200020E030E04AEF54E40E941F02DC01CB01AB
:10383000F80180839183A283B383FE01E858FF4F90
:10384000608171818281938120E030E040E85FE314
:103850000E942504882344F4FE01EA58FF4F81E0CA
:1038600090E09183808364C0FE01E858FF4F60813F
:1038700071818281938120E03FEF4FE757E40E94FE
:10388000C50318160CF043C0FE01E458FF4F6081D9
:1038900071818281938120E030E040E251E40E9416
:1038A0001F02DC01CB018E010A581F4FBC01CD0164
:1038B0000E944900DC01CB01F801918380831FC085
:1038C000FE01EC58FF4F88EC90E091838083FE016D
:1038D000EC58FF4F808191810197F1F7FE01EC5880
:1038E000FF4F91838083DE01AA58BF4FFE01EA5843
:1038F000FF4F80819181019711969C938E93FE01D9
:10390000EA58FF4F808191810097D1F64BC08E011C
:103910000A581F4FFE01E858FF4F60817181828174
:1039200093810E944900DC01CB01F80191838083DF
:10393000DE01AE58BF4FFE01EA58FF4F80819181F2
:1039400011969C938E93FE01EE58FF4F80819181DA
:103950000197F1F7FE01EE58FF4F9183808322C05B
:103960008E0100581F4FFE01EF57FF4F608171819C
:10397000828193810E944900DC01CB01F8018083A0
:10398000DE01AF58BF4FFE01E058FF4F80818C939E
:10399000FE01EF58FF4F80818A95F1F7FE01EF5845
:1039A000FF4F808383E00E945C21FE01E359FF4FBB
:1039B00080E090E0A0EAB0E480839183A283B383A7
:1039C0008E0107591F4FFE01E359FF4F608171813E
:1039D0008281938120E030E04AEF54E40E941F028C
:1039E000DC01CB01F80180839183A283B383FE01C4
:1039F000E759FF4F608171818281938120E030E03F
:103A000040E85FE30E942504882344F4FE01E9595D
:103A1000FF4F81E090E09183808364C0FE01E7590D
:103A2000FF4F608171818281938120E03FEF4FE7FA
:103A300057E40E94C50318160CF043C0FE01E35979
:103A4000FF4F608171818281938120E030E040E20C
:103A500051E40E941F02DC01CB018E0109591F4F66
:103A6000BC01CD010E944900DC01CB01F80191832A
:103A700080831FC0FE01EB59FF4F88EC90E09183DB
:103A80008083FE01EB59FF4F808191810197F1F70F
:103A9000FE01EB59FF4F91838083DE01A959BF4F8F
:103AA000FE01E959FF4F80819181019711969C9306
:103AB0008E93FE01E959FF4F808191810097D1F6E5
:103AC00027C08E0109591F4FFE01E759FF4F608142
:103AD0007181828193810E944900DC01CB01F80150
:103AE00091838083DE01AD59BF4FFE01E959FF4F3D
:103AF000808191818D939C93FE01ED59FF4F8081D0
:103B000091810197F1F7FE01ED59FF4F9183808379
:103B100083E00E945C21FE01E15AFF4F80E090E0CB
:103B2000A0EAB0E480839183A283B3838E01055A17
:103B30001F4FFE01E15AFF4F6081718182819381A5
:103B400020E030E04AEF54E40E941F02DC01CB0188
:103B5000F80180839183A283B383FE01E55AFF4F6E
:103B6000608171818281938120E030E040E85FE3F1
:103B70000E942504882344F4FE01E75AFF4F81E0A8
:103B800090E09183808364C0FE01E55AFF4F60811D
:103B900071818281938120E03FEF4FE757E40E94DB
:103BA000C50318160CF043C0FE01E15AFF4F6081B7
:103BB00071818281938120E030E040E251E40E94F3
:103BC0001F02DC01CB018E01075A1F4FBC01CD0142
:103BD0000E944900DC01CB01F801918380831FC062
:103BE000FE01E95AFF4F88EC90E091838083FE014B
:103BF000E95AFF4F808191810197F1F7FE01E95A5F
:103C0000FF4F91838083DE01A75ABF4FFE01E75A21
:103C1000FF4F80819181019711969C938E93FE01B5
:103C2000E75AFF4F808191810097D1F627C08E011E
:103C3000075A1F4FFE01E55AFF4F60817181828153
:103C400093810E944900DC01CB01F80191838083BC
:103C5000DE01AB5ABF4FFE01E75AFF4F80819181D1
:103C60008D939C93FE01EB5AFF4F808191810197C8
:103C7000F1F7FE01EB5AFF4F9183808383E00E94AE
:103C80005C21FE01EF5AFF4F80E090E0A0EAB0E433
:103C900080839183A283B3838E01035B1F4FFE0158
:103CA000EF5AFF4F608171818281938120E030E083
:103CB0004AEF54E40E941F02DC01CB01F80180832B
:103CC0009183A283B383FE01E35BFF4F6081718127
:103CD0008281938120E030E040E85FE30E94250488
:103CE000882344F4FE01E55BFF4F81E090E091837F
:103CF000808364C0FE01E35BFF4F6081718182813C
:103D0000938120E03FEF4FE757E40E94C503181668
:103D10000CF043C0FE01EF5AFF4F60817181828138
:103D2000938120E030E040E251E40E941F02DC0178
:103D3000CB018E01055B1F4FBC01CD010E944900E4
:103D4000DC01CB01F801918380831FC0FE01E75B9A
:103D5000FF4F88EC90E091838083FE01E75BFF4F8B
:103D6000808191810197F1F7FE01E75BFF4F91831D
:103D70008083DE01A55BBF4FFE01E55BFF4F8081C5
:103D80009181019711969C938E93FE01E55BFF4F05
:103D9000808191810097D1F627C08E01055B1F4F6E
:103DA000FE01E35BFF4F60817181828193810E94FC
:103DB0004900DC01CB01F80191838083DE01A95B1E
:103DC000BF4FFE01E55BFF4F808191818D939C93F6
:103DD000FE01E95BFF4F808191810197F1F7FE01C0
:103DE000E95BFF4F9183808382E00E945C21FE01AA
:103DF000ED5BFF4F80E090E0ACE5B2E4808391831F
:103E0000A283B3838E01015C1F4FFE01ED5BFF4F68
:103E1000608171818281938120E030E04AEF54E437
:103E20000E941F02DC01CB01F80180839183A283F1
:103E3000B383FE01FF96608171818281938120E0CE
:103E400030E040E85FE30E94250488232CF481E001
:103E500090E09EAF8DAF46C0FE01FF9660817181FC
:103E60008281938120E03FEF4FE757E40E94C50332
:103E7000181664F5FE01ED5BFF4F60817181828150
:103E8000938120E030E040E251E40E941F02DC0117
:103E9000CB01BC01CD010E944900DC01CB019EAFEA
:103EA0008DAF0FC088EC90E09CAF8BAF8BAD9CAD1D
:103EB0000197F1F79CAF8BAF8DAD9EAD01979EAF93
:103EC0008DAF8DAD9EAD009769F716C0FE01FF96D0
:103ED00060817181828193810E944900DC01CB0164
:103EE0009EAF8DAF8DAD9EAD9AAF89AF89AD9AADC6
:103EF0000197F1F79AAF89AF88E20E941C2380E016
:103F000090E0A8E4B2E48DAB9EABAFABB8AF6DA9C7
:103F10007EA98FA998AD20E030E04AEF54E40E94DA
:103F20001F02DC01CB0189AB9AABABABBCAB69A97F
:103F30007AA98BA99CA920E030E040E85FE30E94C9
:103F4000250488232CF481E090E098AB8FA73FC034
:103F500069A97AA98BA99CA920E03FEF4FE757E414
:103F60000E94C50318164CF56DA97EA98FA998ADBE
:103F700020E030E040E251E40E941F02DC01CB016E
:103F8000BC01CD010E944900DC01CB0198AB8FA799
:103F90000FC088EC90E09EA78DA78DA59EA50197E8
:103FA000F1F79EA78DA78FA598A9019798AB8FA72A
:103FB0008FA598A9009769F714C069A97AA98BA958
:103FC0009CA90E944900DC01CB0198AB8FA78FA56B
:103FD00098A99CA78BA78BA59CA50197F1F79CA7F7
:103FE0008BA78CE00E941C2380E090E0A8ECB2E458
:103FF0008FA398A7A9A7BAA76FA178A589A59AA505
:1040000020E030E04AEF54E40E941F02DC01CB01C3
:104010008BA39CA3ADA3BEA36BA17CA18DA19EA1EC
:1040200020E030E040E85FE30E94250488232CF480
:1040300081E090E09AA389A33FC06BA17CA18DA1F0
:104040009EA120E03FEF4FE757E40E94C5031816FA
:104050004CF56FA178A589A59AA520E030E040E253
:1040600051E40E941F02DC01CB01BC01CD010E9482
:104070004900DC01CB019AA389A30FC088EC90E032
:1040800098A38F8F8F8D98A10197F1F798A38F8FA9
:1040900089A19AA101979AA389A389A19AA10097BE
:1040A00069F714C06BA17CA18DA19EA10E9449005B
:1040B000DC01CB019AA389A389A19AA19E8F8D8F40
:1040C0008D8D9E8D0197F1F79E8F8D8F86E00E94DA
:1040D0001C2380E090E0A8E4B2E4898F9A8FAB8F34
:1040E000BC8F698D7A8D8B8D9C8D20E030E04AEFFE
:1040F00054E40E941F02DC01CB018D8B9E8BAF8BA1
:10410000B88F6D897E898F89988D20E030E040E8F6
:104110005FE30E94250488232CF481E090E09C8BCF
:104120008B8B3FC06D897E898F89988D20E03FEF12
:104130004FE757E40E94C50318164CF5698D7A8D38
:104140008B8D9C8D20E030E040E251E40E941F0204
:10415000DC01CB01BC01CD010E944900DC01CB0197
:104160009C8B8B8B0FC088EC90E09A8B898B898914
:104170009A890197F1F79A8B898B8B899C89019792
:104180009C8B8B8B8B899C89009769F714C06D89F8
:104190007E898F89988D0E944900DC01CB019C8B20
:1041A0008B8B8B899C89988B8F878F8598890197BA
:1041B000F1F7988B8F878CE00E941C2380E090E0C1
:1041C000A8ECB2E48B879C87AD87BE876B857C8526
:1041D0008D859E8520E030E04AEF54E40E941F0266
:1041E000DC01CB018F839887A987BA876F81788597
:1041F00089859A8520E030E040E85FE30E9425044D
:1042000088232CF481E090E09E838D833FC06F81F2
:10421000788589859A8520E03FEF4FE757E40E9433
:10422000C50318164CF56B857C858D859E8520E031
:1042300030E040E251E40E941F02DC01CB01BC01EE
:10424000CD010E944900DC01CB019E838D830FC00C
:1042500088EC90E09C838B838B819C810197F1F7A4
:104260009C838B838D819E8101979E838D838D811D
:104270009E81009769F714C06F81788589859A853A
:104280000E944900DC01CB019E838D838D819E813C
:104290009A83898389819A810197F1F79A83898327
:1042A000CA56DF4F0FB6F894DEBF0FBECDBFCF9119
:1042B000DF911F910F910895DF93CF93CDB7DEB7B4
:1042C0006D970FB6F894DEBF0FBECDBF8D8F80E027
:1042D00065E040E00E944D0D80E090E0A0E8BFE383
:1042E000898F9A8FAB8FBC8F698D7A8D8B8D9C8DCA
:1042F00020E030E04AEF54E40E941F02DC01CB01D1
:104300008D8B9E8BAF8BB88F6D897E898F89988DB1
:1043100020E030E040E85FE30E94250488232CF48D
:1043200081E090E09C8B8B8B3FC06D897E898F896B
:10433000988D20E03FEF4FE757E40E94C503181621
:104340004CF5698D7A8D8B8D9C8D20E030E040E2BC
:1043500051E40E941F02DC01CB01BC01CD010E948F
:104360004900DC01CB019C8B8B8B0FC088EC90E06B
:104370009A8B898B89899A890197F1F79A8B898B16
:104380008B899C8901979C8B8B8B8B899C8900974F
:1043900069F714C06D897E898F89988D0E944900C4
:1043A000DC01CB019C8B8B8B8B899C89988B8F87B5
:1043B0008F8598890197F1F7988B8F878D8D982F2E
:1043C000917080E060E0492F0E944D0D8D8D8695A3
:1043D000982F917080E061E0492F0E944D0D8D8DE6
:1043E00086958695982F917080E062E0492F0E9413
:1043F0004D0D8D8D869586958695982F917080E0D0
:1044000063E0492F0E944D0D80E066E041E00E948C
:104410004D0D80E090E0A0E8BFE38B879C87AD87DF
:10442000BE876B857C858D859E8520E030E04AEFD8
:1044300054E40E941F02DC01CB018F839887A98777
:10444000BA876F81788589859A8520E030E040E8D9
:104450005FE30E94250488232CF481E090E09E8392
:104460008D833FC06F81788589859A8520E03FEFF5
:104470004FE757E40E94C50318164CF56B857C8501
:104480008D859E8520E030E040E251E40E941F02CD
:10449000DC01CB01BC01CD010E944900DC01CB0154
:1044A0009E838D830FC088EC90E09C838B838B81EF
:1044B0009C810197F1F79C838B838D819E8101976D
:1044C0009E838D838D819E81009769F714C06F81D3
:1044D000788589859A850E944900DC01CB019E83FD
:1044E0008D838D819E819A83898389819A810197A9
:1044F000F1F79A83898380E066E040E00E944D0DE9
:104500006D960FB6F894DEBF0FBECDBFCF91DF9191
:104510000895DF93CF93CDB7DEB72F970FB6F894FA
:10452000DEBF0FBECDBF8F8780E064E041E00E9418
:104530004D0D80E090E0A0EAB0E48B879C87AD87CA
:10454000BE876B857C858D859E8520E030E04AEFB7
:1045500054E40E941F02DC01CB018F839887A98756
:10456000BA876F81788589859A8520E030E040E8B8
:104570005FE30E94250488232CF481E090E09E8371
:104580008D833FC06F81788589859A8520E03FEFD4
:104590004FE757E40E94C50318164CF56B857C85E0
:1045A0008D859E8520E030E040E251E40E941F02AC
:1045B000DC01CB01BC01CD010E944900DC01CB0133
:1045C0009E838D830FC088EC90E09C838B838B81CE
:1045D0009C810197F1F79C838B838D819E8101974C
:1045E0009E838D838D819E81009769F714C06F81B2
:1045F000788589859A850E944900DC01CB019E83DC
:104600008D838D819E819A83898389819A81019787
:10461000F1F79A8389838F8582958F700E945C2140
:104620008F850E945C212F960FB6F894DEBF0FBED7
:10463000CDBFCF91DF910895DF93CF93CDB7DEB794
:104640002F970FB6F894DEBF0FBECDBF8F8780E0E7
:1046500064E040E00E944D0D80E090E0A0EAB0E40C
:104660008B879C87AD87BE876B857C858D859E8576
:1046700020E030E04AEF54E40E941F02DC01CB014D
:104680008F839887A987BA876F81788589859A856E
:1046900020E030E040E85FE30E94250488232CF40A
:1046A00081E090E09E838D833FC06F81788589850E
:1046B0009A8520E03FEF4FE757E40E94C5031816A4
:1046C0004CF56B857C858D859E8520E030E040E251
:1046D00051E40E941F02DC01CB01BC01CD010E940C
:1046E0004900DC01CB019E838D830FC088EC90E0F4
:1046F0009C838B838B819C810197F1F79C838B83B7
:104700008D819E8101979E838D838D819E810097EF
:1047100069F714C06F81788589859A850E94490060
:10472000DC01CB019E838D838D819E819A83898359
:1047300089819A810197F1F79A8389838F85829580
:104740008F700E945C218F850E945C212F960FB68E
:10475000F894DEBF0FBECDBFCF91DF910895DF93F8
:10476000CF9300D00F92CDB7DEB79B838A83198297
:104770000EC08981282F30E08A819B81FC01E20FE5
:10478000F31F80810E94892289818F5F89838981BB
:10479000282F30E08A819B81FC01E20FF31F80818A
:1047A000882339F70F900F900F90CF91DF910895E4
:1047B000DF93CF93CDB7DEB781E00E941C23CF916A
:1047C000DF910895DF93CF93CDB7DEB728970FB66B
:1047D000F894DEBF0FBECDBF6D837E838F83988735
:1047E0008D819E81AF81B8850097A105B10519F42F
:1047F00080E30E94892281E090E0A0E0B0E089831C
:104800009A83AB83BC8340C089819A81AB81BC8190
:104810002AE030E040E050E0BC01CD010E942425B8
:10482000DC01CB0189839A83AB83BC838D819E811C
:10483000AF81B8852AE030E040E050E0BC01CD0116
:104840000E945725DC01CB019C01AD0189819A8131
:10485000AB81BC81820F931FA41FB51F89839A83EC
:10486000AB83BC838D819E81AF81B8852AE030E027
:1048700040E050E0BC01CD010E945725DA01C9019A
:104880008D839E83AF83B8878D819E81AF81B885EC
:104890000097A105B10509F0B7CF23C089819A819E
:1048A000AB81BC812AE030E040E050E0BC01CD01AA
:1048B0000E945725DC01CB01805D0E9489228981FD
:1048C0009A81AB81BC812AE030E040E050E0BC013D
:1048D000CD010E945725DA01C90189839A83AB83F0
:1048E000BC8389819A81AB81BC8182309105A1050D
:1048F000B105A0F628960FB6F894DEBF0FBECDBF67
:10490000CF91DF910895DF93CF9300D0CDB7DEB77D
:1049100089836A838981813029F48A8181580E9440
:104920001C2307C08981823021F48A8181540E942E
:104930001C230F900F90CF91DF910895DF93CF93B9
:10494000CDB7DEB769970FB6F894DEBF0FBECDBF07
:104950000E94030F0E94DC1A80E1FE013A96DF01FB
:10496000982F1D929A95E9F7198618860E94460F8E
:104970008F8388858130E9F40E94D82319861886B0
:104980000CC08985282F30E0CE010A96FC01E20F89
:10499000F31F108289858F5F89878985282F30E0F2
:1049A000CE010A96FC01E20FF31F8081882349F7AC
:1049B00019868F81882F90E00197FC01E459FF4F01
:1049C00080818D3311F5CE010A960E94F0069E83F8
:1049D0008D8382E061E00E9483248D819E810E940C
:1049E000C3079C838B838B819C810E947A089A8366
:1049F000898389819A81CC01A0E0B0E0BC01CD011E
:104A00000E94E22381E08887B1CF8985482F50E05A
:104A10008F81882F90E00197FC01E459FF4F20819E
:104A2000CE010A96FC01E40FF51F208389858F5F74
:104A300089878F81882F90E00197FC01E459FF4F0F
:104A400080810E94892292CF629FD001739FF001E2
:104A5000829FE00DF11D649FE00DF11D929FF00D0E
:104A6000839FF00D749FF00D659FF00D9927729F45
:104A7000B00DE11DF91F639FB00DE11DF91FBD01D0
:104A8000CF0111240895AA1BBB1B51E107C0AA1F27
:104A9000BB1FA617B70710F0A61BB70B881F991FDF
:104AA0005A95A9F780959095BC01CD010895A1E292
:104AB0001A2EAA1BBB1BFD010DC0AA1FBB1FEE1F98
:104AC000FF1FA217B307E407F50720F0A21BB30BE3
:104AD000E40BF50B661F771F881F991F1A9469F75F
:104AE00060957095809590959B01AC01BD01CF01BB
:104AF00008952F923F924F925F926F927F928F9282
:104B00009F92AF92BF92CF92DF92EF92FF920F935C
:104B10001F93CF93DF93CDB7DEB7CA1BDB0B0FB666
:104B2000F894DEBF0FBECDBF09942A883988488823
:104B30005F846E847D848C849B84AA84B984C884B9
:104B4000DF80EE80FD800C811B81AA81B981CE0FB0
:104B5000D11D0FB6F894DEBF0FBECDBFED01089595
:044B6000F894FFCFF7
:104B640000000000000000001400FFFF3738392F58
:0C4B74003435362A3132332D25303D2BEC
:00000001FF
